:020000040800F2
:10000000A8070020CD0100085D0E0008C9080008FF
:10001000CD0800082D070008851C0008000000001E
:10002000000000000000000000000000291300088C
:100030003107000800000000E50E00089D170008C9
:10004000E7010008E7010008E7010008E7010008F0
:10005000E7010008E7010008E7010008E7010008E0
:10006000E7010008E7010008E7010008E7010008D0
:10007000E7010008E7010008E7010008E7010008C0
:10008000E7010008E7010008E7010008E7010008B0
:10009000E7010008E7010008E7010008E7010008A0
:1000A000E7010008E7010008E7010008E701000890
:1000B0000118000835180008E7010008E7010008EA
:1000C000E7010008E7010008E7010008E701000870
:1000D000E7010008E7010008E7010008E701000860
:1000E000E7010008E7010008E7010008E701000850
:1000F000E7010008E7010008E7010008E701000840
:10010000E7010008E7010008E7010008E70100082F
:1001100065190008E7010008E7010008E701000889
:10012000E7010008E7010008E7010008E70100080F
:1001300000F002F800F03AF80AA090E8000C8244BF
:100140008344AAF10107DA4501D100F02FF8AFF29C
:10015000090EBAE80F0013F0010F18BFFB1A43F0A5
:1001600001031847481E0000681E0000103A24BF13
:1001700078C878C1FAD8520724BF30C830C144BF0C
:1001800004680C607047000000230024002500264E
:10019000103A28BF78C1FBD8520728BF30C148BFEA
:1001A0000B6070471FB51FBD10B510BD00F0B2F851
:1001B0001146FFF7F7FF01F0D7FD00F0D0F803B4C8
:1001C000FFF7F2FF03BC01F095FD000009488047EE
:1001D00009480047FEE7FEE7FEE7FEE7FEE7FEE729
:1001E000FEE7FEE7FEE7FEE704480549054A064B41
:1001F00070470000A117000831010008A801002085
:10020000A8070020A8030020A8030020704710B50D
:10021000203AC0F00B80B1E81850203AA0E81850FE
:10022000B1E81850A0E81850BFF4F5AF5FEA027CBF
:1002300024BFB1E81850A0E8185044BF18C918C02E
:10024000BDE810405FEA827C24BF51F8043B40F8CF
:10025000043B08BF7047D20728BF31F8023B48BFB4
:1002600011F8012B28BF20F8023B48BF00F8012BF2
:1002700070474FF000020429C0F0128010F0030C08
:1002800000F01B80CCF1040CBCF1020F18BF00F889
:10029000012BA8BF20F8022BA1EB0C0100F00DB838
:1002A0005FEAC17C24BF00F8012B00F8012B48BF96
:1002B00000F8012B70474FF0000200B5134694463A
:1002C0009646203922BFA0E80C50A0E80C50B1F1AE
:1002D0002001BFF4F7AF090728BFA0E80C5048BFC2
:1002E0000CC05DF804EB890028BF40F8042B08BF60
:1002F000704748BF20F8022B11F0804F18BF00F85C
:10030000012B70477047704770477047004870472F
:10031000440100207546FFF7F9FFAE460500694627
:10032000534620F00700854618B020B5FFF75CFF64
:10033000BDE820404FF000064FF000074FF00008E6
:100340004FF0000B21F00701AC46ACE8C009ACE867
:10035000C009ACE8C009ACE8C0098D467047044646
:10036000AFF300802046FFF72AFF00001CB50020F5
:100370008DF804008DF805008DF806008DF8070053
:1003800010211E4800F069FA00BF40211B4800F010
:100390005BFA0028F9D000BF4021184800F054FA59
:1003A0000128F9D01648406800F48010B0F5801F8D
:1003B00013D10422694601A801F0A0F89DF800407D
:1003C0009DF8010000EB04249DF8020000EB0424DA
:1003D0009DF8030000EB04240EE00322694601A807
:1003E00001F08CF89DF800409DF8010000EB04241A
:1003F0009DF8020000EB042420461CBD00080140CB
:10040000240000201CB500BF40210C4800F01CFA5D
:100410000028F9D000BF4021084800F015FA012853
:10042000F9D0582001900122694601A801F066F830
:100430001021024800F013FA1CBD00000008014022
:1004400010B500F0BBF84FF4FA7001F072FC00F048
:1004500033F800F001F810BD10B5002013494860D2
:1004600088604FF48070886002230A460121184694
:1004700001F00AFC00200D4948600D484860012346
:100480000A461946184601F0FFFB1021094800F002
:10049000E4F900BF4021074800F0D6F90128F9D05F
:1004A0001021044800F0DBF910BD000024000020FA
:1004B0008030BC000008014010B50020124948609F
:1004C00088604FF48070886002230A460121184634
:1004D00001F0DAFB0D480C49486001230A46194631
:1004E000184601F0D1FB1021094800F0B6F900BF11
:1004F0004021074800F0A8F90128F9D0102104484C
:1005000000F0ADF910BD00002400002080209C0008
:10051000000801401CB51021264800F09EF9582023
:100520008DF804000122694601A800F0E7FF0020D1
:100530008DF804008DF805008DF806008DF8070091
:1005400000BF40211B4800F07FF90028F9D000BF10
:100550004021184800F078F90128F9D01648406881
:1005600000F48010B0F5801F13D10422694601A861
:1005700000F0C4FF9DF800409DF8010000EB04244A
:100580009DF8020000EB04249DF8030000EB042416
:100590000EE00322694601A800F0B0FF9DF800407C
:1005A0009DF8010000EB04249DF8020000EB0424F8
:1005B00020461CBD00080140240000201CB510216D
:1005C0000A4800F04AF9FF200190002406E00122C9
:1005D000694601A800F092FF601CC4B2052CF6DB4E
:1005E0001021024800F03BF91CBD0000000801404A
:1005F0001CB50C480C4948604FF48070886001239A
:100600000A460221184601F03FFB1021074800F07E
:1006100024F95C2001900122694601A800F06EFFD8
:100620001CBD000080000C002400002000080140D8
:1006300010B5044600200A49486088600846846076
:10064000022302460121184601F01EFB0548044919
:10065000486001230A461946184601F015FB10BDF3
:100660002400002080203C0008B50121102000F06B
:100670004BFC0720ADF8000010208DF8030003208C
:100680008DF802006946064800F053F8042104483A
:1006900000F0E5F80321024800F0DFF808BD000093
:1006A0000010014010B504460421194800F0D7F8A5
:1006B000052C25D2DFE804F01F0308111A000321DE
:1006C000134800F0CAF820E00221114800F0C5F8F4
:1006D00001210F4800F0C3F817E002210C4800F098
:1006E000BEF801210A4800F0B8F80EE003210848DE
:1006F00000F0B5F809E00421054800F0AEF804E088
:100700000321034800F0A9F800BF00BF10BD00009E
:10071000001001400146002000BF04E001F001028A
:100720000244D0B249080029F8D1704700BFFEE763
:1007300070472DE9F04102460025002600200023E5
:100740000024002791F803C00CF00F0591F803C0B6
:100750000CF0100CBCF1000F03D091F802C04CEA71
:10076000050591F800C0BCF1000F31D014680020DD
:100770002BE04FF0010C0CFA00F3B1F800C00CEACA
:1007800003069E4220D183004FF00F0C0CFA03F7B2
:10079000BC4305FA03FC4CEA040491F803C0BCF125
:1007A000280F06D14FF0010C0CFA00FCC2F814C05F
:1007B0000AE091F803C0BCF1480F05D14FF0010CDD
:1007C0000CFA00FCC2F810C0401C0828D1D31460F9
:1007D000B1F800C0BCF1FF0F34DD546800202EE0FA
:1007E00000F1080C4FF0010808FA0CF3B1F800C052
:1007F0000CEA03069E4221D183004FF00F0C0CFA45
:1008000003F7BC4305FA03FC4CEA040491F803C067
:10081000BCF1280F05D100F1080C08FA0CF8C2F859
:10082000148091F803C0BCF1480F07D100F1080C07
:100830004FF0010808FA0CF8C2F81080401C082894
:10084000CED35460BDE8F0810246002093680B408F
:100850000BB1012000E00020704741617047016149
:10086000704700002DE9F041ADF5007D0446884653
:100870004FF48072124940A8FFF7C9FC4FF4807210
:1008800010496846FFF7C3FCFF25FF26002709E053
:1008900014F8010B80EA050740A8C05D80EA060550
:1008A0001DF807605FEA0800A8F101011FFA81F84E
:1008B000EED146EA05200DF5007DBDE8F08100008F
:1008C000AC1D0008AC1E000800BFFEE700BFFEE73D
:1008D00010B5002426488078264908702448C4783A
:1008E00008460078042833DC002C2DDD084600780B
:1008F000052827D2DFE800F01B03090F1500214669
:100900001C48007800F04AFE1CE021461948007897
:1009100000F044FE16E021461648007800F03EFE46
:1009200010E021461348007800F038FE0AE000206D
:10093000FFF7B8FE00200E49887003210C4800F034
:100940002CFD00BF00BF10BD04200949887002E0E3
:100950000220074988700648407840F0800004492A
:1009600048700321024800F018FD00BFEBE70000CB
:10097000440000201900002010B52048807820494C
:1009800008700846007803282ADC08460078052805
:1009900024D2DFE800F01803080D1300012108023B
:1009A00000F066FE1AE00221C80100F061FE15E0C9
:1009B00003214FF4807000F05BFE0FE004218801FA
:1009C00000F056FE0AE00020FFF76CFE00200B4905
:1009D00088700321094800F0E0FC00BF00BF10BD93
:1009E0000220064988700846407840F08000487030
:1009F0000321024800F0D1FC00BFF0E744000020D2
:100A00001900002070B50025002600244048C07859
:100A10003F49897800EB012085B23D4840793C4947
:100A2000097900EB0120C6B2012E61DB082E5FDCE4
:100A3000012D59DB082D57DCA819401E082853DC6E
:100A400000204FF0804188840121880700F012FFC8
:100A5000691EC8B200232F4A314600F0CFFA0021A8
:100A60004FF0804000F006FF2B480078B8BBB0067E
:100A7000000E2749887000BF27E0681E20442549E2
:100A800051F82000010EA000C01C214A1154681E1C
:100A90002044204951F82000C0F30741A000001D68
:100AA0001154681E20441B4931F82000C0F307216F
:100AB000A000401D1154681E2044164911F8201052
:100AC000A000801D1154601CC4B2B442D5DB104894
:100AD0008078C01CC1B20E4800F05FFC70BDFFE71B
:100AE00004200B49887006E002200949887002E062
:100AF0000320074988700648407840F08000044988
:100B000048700321024800F048FC00BFE6E70000FF
:100B100044000020240000201C00002070B50025A7
:100B2000002600244048C0783F49897800EB012026
:100B300085B23D4840793C49097900EB0120C6B2B5
:100B4000012E61DB082E5FDC012D59DB082D57DCFF
:100B5000A819401E082853DC00204FF080418884EB
:100B60000121880700F086FE691EC8B200232F4AC3
:100B7000314600F043FA00214FF0804000F07AFE49
:100B80002B480078B8BBB006000E2749887000BF1C
:100B900027E0681E2044254951F82000010EA000DE
:100BA000C01C214A1154681E2044204951F82000DD
:100BB000C0F30741A000001D1154681E20441B49CA
:100BC00031F82000C0F30721A000401D1154681E19
:100BD0002044164911F82010A000801D1154601CFB
:100BE000C4B2B442D5DB10488078C01CC1B20E48F4
:100BF00000F0D3FB70BDFFE704200B49887006E0CE
:100C000002200949887002E00320074988700648DD
:100C1000407840F08000044948700321024800F009
:100C2000BCFB00BFE6E700004400002024000020D9
:100C30001C0000202DE9F04100260025002400279B
:100C40003E48C0783D49897800EB012086B23B4898
:100C500040793A49097900EB0120C5B237488779D4
:100C600000BF1EE0072000EB84003449085C00064A
:100C7000082101EB8401314A515C00EB014009215C
:100C800001EB8401515C00EB01200A2101EB84019E
:100C9000515C0144701E2044294A42F82010601C17
:100CA000C4B2AC42DEDB012D38DB082D36DCB7EBFD
:100CB000850F33D1012E2DDB082E2BDC7019401E41
:100CC000082827DC00204FF0804188840121880714
:100CD00000F0D0FD711EC8B20023194A294600F069
:100CE000D3FF00214FF0804000F0C4FD154800788C
:100CF00060B9301211498870CE7028120871084608
:100D00004571062100F049FBBDE8F08104200B4944
:100D1000887006E002200949887002E00320074934
:100D200088700648407840F08000044948700321EC
:100D3000024800F032FB00BFE6E70000440000205C
:100D4000240000201C00002070B50024002540482D
:100D5000C0783F49897800EB012084B23C48007993
:100D600000063B49497900EB01403949897900EB9C
:100D700001203749C9790144601E364A42F82010E3
:100D8000B5F1807F54D2012C4EDB082C4CDC0020C6
:100D90004FF0804188840121880700F06BFD611EBF
:100DA000C8B200232B4A012100F06EFF0021601E13
:100DB000284A42F82010611E134603EB8102C8B294
:100DC0000023012100F01AF900214FF0804000F0CB
:100DD00051FD2148007818BB20121D498870CC7045
:100DE000601E1C4951F82000000E19490871601E50
:100DF000184951F82000000C15494871601E15492A
:100E000031F82000000A12498871601E114911F85A
:100E100020000F49C87108210D4800F0BEFA70BDCE
:100E200004200B49887006E002200949887002E01E
:100E30000220074988700648407840F08000044945
:100E400048700321024800F0A8FA00BFE7E700005D
:100E500044000020240000201C00002070470000F7
:100E600070B5002100230F22C47804B3154C246808
:100E700004F4E064C4F5E064210AC1F10403CA404B
:100E8000447804FA03F184781440214309010E4C9C
:100E90000678A155047804F01F050124AC400578BC
:100EA0006D11AD0005F1E025C5F8004109E00478B9
:100EB00004F01F050124AC40044D0678761145F876
:100EC000264070BD0CED00E000E400E080E100E0B1
:100ED00002490143024A1160704700000000FA0510
:100EE0000CED00E07047000029B1064AD2690243C8
:100EF000044BDA6104E0034AD2698243014BDA61B0
:100F0000704700000010024029B1064A926902436E
:100F1000044B9A6104E0034A92698243014B9A614F
:100F2000704700000010024030B50021002200246C
:100F300000232D4D6D6805F00C0121B1042905D069
:100F4000082923D105E0294D056022E0274D0560E1
:100F50001FE0254D6D6805F47012234D6D6805F492
:100F60008034022505EB92421CB9214D55430560A2
:100F70000BE01D4D6D6805F400351DB11C4D55434A
:100F8000056002E0194D5543056002E0174D05600C
:100F900000BF00BF144D6D6805F0F0010909154D43
:100FA0006B5C0568DD4045600F4D6D6805F4E061E0
:100FB000090A104D6B5C4568DD4085600A4D6D681F
:100FC00005F46051C90A0B4D6B5C4568DD40C56096
:100FD000054D6D6805F44041890B074D6B5CC56894
:100FE000B5FBF3F5056130BD0010024000127A0038
:100FF00000093D0000000020100000202DE9FC4108
:101000000746884615461E4610215748FFF725FC1F
:1010100000249FE03819402141EAC000C0B28DF899
:1010200004000122694601A800F068FA00208DF84A
:1010300004008DF805008DF806008DF807003819BA
:1010400008287CD2DFE800F00511123304061314DF
:1010500000BF00BF0122694601A800F04FFA9DF8C9
:101060000000311945F8210071E000BF00BF00BF4A
:101070000322694601A800F041FA9DF800003119E9
:1010800045F821009DF80100311955F8211000EBB9
:101090000120311945F821009DF80200311955F859
:1010A000211000EB0120311945F821004FE02F48B5
:1010B000406800F4801040B30422694601A800F0A3
:1010C0001DFA9DF80000311945F821009DF8010036
:1010D000311955F8211000EB0120311945F8210094
:1010E0009DF80200311955F8211000EB012031194B
:1010F00045F821009DF80300311955F8211000EB47
:101100000120311945F8210021E00322694601A898
:1011100000F0F4F99DF80000311945F821009DF820
:101120000100311955F8211000EB0120311945F863
:1011300021009DF80200311955F8211000E005E06A
:1011400000EB0120311945F8210000E000BF00BF8D
:10115000601CC4B24445FFF65DAF10210248FFF7A2
:101160007EFB0020BDE8FC81000801402400002037
:101170001FB501210220FFF7B7FE0121174800F03B
:1011800076FB1120ADF8080040F60F60ADF80400C2
:101190000020ADF80A00ADF8060001A90F4800F0E4
:1011A0008FFB00210D4800F065FB012211460B4822
:1011B00000F07DFB1D208DF8000000208DF801005F
:1011C0008DF8020001208DF803006846FFF748FE05
:1011D0000121024800F048FB1FBD00000004004050
:1011E00070B5002400254A480078A8B14848007826
:1011F000012811D04FF480714548FFF73AF82021BB
:101200004448FFF758F800204349087043490870E4
:101210003F484349086070BD414800683C49401A56
:10122000801E00281ADD3E48006810F8010C3C4979
:10123000096811F8021C00EB012084B238480088CC
:10124000334A801A801E81B21046FFF70BFBA04282
:1012500001D1012000E000203249087031480078B7
:1012600088B94FF480712A48FFF703F820212948F4
:10127000FFF721F800202849087028490870244801
:1012800027490860C7E722484078102815D006DCB7
:10129000032809D004280AD0062817D10AE04128DB
:1012A0000ED0422812D10EE0FFF7ACFB1BE0FFF797
:1012B00035FC18E0FFF748FD15E0FFF7BBFC12E036
:1012C000FFF75AFB0FE0FFF703FB0CE010484078F4
:1012D00040F080000E4948700120887003210C48BE
:1012E00000F05BF800BF00BF4FF480710848FEF7C4
:1012F000C0FF20210748FEF7DEFF002006490870E6
:101300000649087002480649086000BF83E70000EC
:1013100044000020240000201D0000201C000020AC
:10132000200000201E00002070471FB50121084644
:10133000FFF7DAFD0121880700F099FA4FF47A707F
:10134000ADF8080048F69F40ADF804000020ADF865
:101350000A00ADF8060001A94FF0804000F0B0FA95
:1013600001221146900700F0A2FA00214FF08040C0
:1013700000F080FA1C208DF8000000208DF801009C
:1013800001208DF802008DF803006846FFF768FD24
:101390000121880700F068FA1FBD70B504460D46AC
:1013A00003E014F8010B00F011FB2800A5F1010186
:1013B000CDB2F6D170BD10B500F002F810BD00003E
:1013C0000CB50020019000903348006840F4803054
:1013D0003149086000BF3048006800F400300090D8
:1013E0000198401C0190009818B90198B0F5A06FC1
:1013F000F1D12948006800F4003010B101200090BC
:1014000001E0002000900098012843D123480068A3
:1014100040F01000214908600846006820F00300F1
:1014200008600846006840F0020008601A484068FA
:10143000194948600846406848600846406840F4DA
:10144000806048600846406820F47C104860084688
:10145000406840F4E81048600846006840F080703A
:10146000086000BF0C48006800F000700028F9D048
:101470000948406820F00300074948600846406872
:1014800040F00200486000BF0348406800F00C00D4
:101490000828F9D10CBD00000010024000200240D5
:1014A00008B501210820FFF72FFD01210420FFF7D7
:1014B0002BFDF020ADF8000010208DF80300032074
:1014C0008DF8020069460C48FFF733F94020ADF86B
:1014D000000004208DF8030003208DF80200694607
:1014E0000548FFF726F910210348FFF7B8F9202136
:1014F0000148FFF7B4F908BD000801402DE9F047A5
:1015000005460E46174620212348FFF7A8F9002478
:101510003AE015F804804FF00009CA462DE020217A
:101520001D48FFF79CF93C2000F003FC08F0800008
:10153000802804D180211848FFF791F903E0802129
:101540001548FFF78AF94FEA48604FEA10685020C3
:1015500000F0EFFB20211048FFF77FF940210E48F3
:10156000FFF772F940EA490000F0FF093C2000F063
:10157000E0FB0AF1010000F0FF0ABAF1080FCEDB30
:1015800006F80490601CC4B2BC42C2DB20210248B1
:10159000FFF765F9BDE8F0870008014070B5064621
:1015A0000C4600253046FFF77DF8FFF721F800BF15
:1015B00052E000204FF0804188840121880700F02C
:1015C00059F9FEF7D3FE2649086000214FF080400C
:1015D00000F050F92348007860BB2348406800F4CD
:1015E0008010B0F5801F14D11D480068000E1F49FF
:1015F00088701B480068000CC87019480088000AF1
:10160000087117480078487106211848FFF7C5FE91
:1016100020E013480068000C1449887010480088C6
:10162000000AC8700E480078087105210F48FFF7BE
:10163000B4FE0FE003200D498870FEF7E3FE0B486F
:10164000407840F080000949487003210748FFF7BF
:10165000A4FE03E0681C85B2A542AADB00BF70BDF2
:10166000140000201C000020240000204400002062
:1016700070B505460C462046FFF714F8012000F02F
:101680003CFB00204FF0804188840121880700F056
:10169000F1F82846FEF7CCFFFEF73CFF3A49086018
:1016A00000214FF0804000F0E5F83848007800282D
:1016B0005AD13748808800F40050B0F5005F41D11E
:1016C000314909680809FFF725F8034600EBD37094
:1016D0004010A3EB4000002830D12E4800780128AC
:1016E00014D104F003002C49887027480068000ECC
:1016F000C87025480068000C087123480088000A5B
:10170000487106212448FFF748FE70BD2148007843
:1017100068BB1D480068000E1F4988701A480068A1
:10172000000CC87018480088000A08711648007834
:10173000487106211848FFF730FEE6E704201649F5
:10174000887014E010480068000E134988700E4835
:101750000068000CC8700C480088000A0871052158
:101760000D48FFF71AFED0E703200B4988700A489E
:10177000407840F080000849487003210648FFF790
:101780000CFE00BFC1E70000140000201C00002078
:1017900024000020180000204400002070470000B2
:1017A00010B51348006840F0010011490860084670
:1017B0004068104908400E494860084600680E49D4
:1017C00008400B4908600846006820F48020086043
:1017D0000846406820F4FE0048604FF41F0088600F
:1017E000FFF7E9FD4FF000600449086010BD0000FC
:1017F000001002400000FFF8FFFFF6FE08ED00E0D9
:1018000010B50121880700F041F878B1012008499E
:10181000087000204FF08041888400214FF0804004
:1018200000F028F80121880700F021F810BD000021
:101830001C00002010B50121094800F027F870B104
:101840000120084908700021054800F013F8002025
:101850000349243108800121014800F008F810BD37
:10186000000400401D000020CA4302827047CA43A2
:101870000282704721B1028842F00102028004E036
:1018800002884FF6FE731A400280704730B5024658
:10189000002000230024158A05EA0103958905EA42
:1018A000010413B10CB1012000E0002030BD1AB1D9
:1018B00083890B43838102E083898B438381704753
:1018C000002202881D4B98420ED01D4B98420BD02F
:1018D000B0F1804F08D01B4B984205D01A4B98426C
:1018E00002D01A4B984204D14FF68F731A404B889E
:1018F0001A43174B984207D0164B984204D04FF624
:10190000FF431A40CB881A4302808B8883850B885B
:1019100003850A4B98420BD0094B984208D00E4BD6
:10192000984205D00D4B984202D00D4B984201D100
:101930000B7A03860123838270470000002C01404C
:10194000003401400004004000080040000C00404A
:1019500000100040001400400040014000440140DD
:101960000048014010B540F22551144800F060F8DD
:1019700018B3002012490880012111482438FFF7CC
:1019800079FF104801681048814206D10B4800F0E9
:101990000BF90C49096808700AE0084800F004F9DE
:1019A00008490968087007480068401C0549086034
:1019B00040F22551014800F019F810BD004C0040DC
:1019C00024040040200000204301002010B50446FC
:1019D0002146054800F0EDF800BF4021024800F024
:1019E0001AF80128F9D110BD004C004001F4007232
:1019F000B2F5007F00D100BFCA430280704721B119
:101A0000828942F40052828104E082894DF6FF739C
:101A10001A408281704702460020B1F5007F00D154
:101A200000BF13880B400BB1012000E0002070477D
:101A300070B50246002400230025002040F66A16F7
:101A4000B14200D100BFC1F3421501F01F030126CE
:101A500006FA03F3012D02D19689334006E0022DE8
:101A600002D1168A334001E0968A33400C120126D7
:101A700006FA04F41688344013B10CB1012000E0DA
:101A8000002070BDF0B5034600240026002500208C
:101A900040F66A17B94200D100BF1846C1F342149C
:101AA00001F01F06012707FA06F5012C01D10C30C1
:101AB00004E0022C01D1103000E014301AB10768A4
:101AC0002F43076002E00768AF430760F0BD0000E6
:101AD0002DE9F04786B005460E460024A24600BF19
:101AE000A1460027B08900B100BF2F462C8A4CF6D2
:101AF000FF700440F08804432C82AC894EF6F3104A
:101B00000440B08831890843718908430443AC819B
:101B1000AC8A4FF6FF400440B0890443AC8201A870
:101B2000FFF702FA1F48874202D1DDF810A001E05A
:101B3000DDF80CA0A88900F4004040B10AEBCA000F
:101B400000EB0A1031684900B0FBF1F807E00AEB3E
:101B5000CA0000EB0A1031688900B0FBF1F864207C
:101B6000B8FBF0F004012009642101FB1089A88969
:101B700000F4004040B1322000EBC900B0FBF1F0AE
:101B800000F00700044308E0322000EB0910642154
:101B9000B0FBF1F000F00F0004432C8106B0BDE86B
:101BA000F08700000038014001468888C0F3080033
:101BB0007047C1F3080282807047000000B587B00B
:101BC00001211120FFF7A0F90121C804FFF78CF9CA
:101BD0004FF48060ADF8180003208DF81A0018202B
:101BE0008DF81B0006A92548FEF7A3FD4FF4006001
:101BF000ADF8180003208DF81A0004208DF81B00A2
:101C000006A91E48FEF795FD4FF4E13001904FF410
:101C10008060ADF80C000020ADF80A004FF4805051
:101C2000ADF808000020ADF810000C20ADF80E0053
:101C300001A91348FFF74CFF012240F2255110483B
:101C4000FFF720FF34208DF8140000208DF81500D8
:101C500001208DF816008DF8170005A8FFF700F990
:101C600040210748FFF7C2FE20210548FFF7BEFECE
:101C700001210348FFF7C3FE07B000BD001001407B
:101C8000004C004000BFFEE72DE9FC4105460F4631
:101C90001646984610211648FEF7DFFD00241EE088
:101CA0002819002141EAC000C0B28DF804002819AB
:101CB00056F82000000C8DF80500281936F8200091
:101CC000000A8DF80600281916F820008DF8070084
:101CD0000422694601A8FFF711FC601CC4B2BC4293
:101CE000DEDB10210248FEF7BAFD0020BDE8FC81D2
:101CF00000080140014600BF7047014642F2283209
:101D00004A434FF0E0235A6101221A6100229A618E
:101D100000BF4FF0E022106900F001021AB100F498
:101D20008032002AF5D000224FF0E0231A619A6138
:101D30007047014601EBC1024FF0E0235A610122D6
:101D40001A6100229A6100BF4FF0E022106900F092
:101D500001021AB100F48032002AF5D000224FF0BF
:101D6000E0231A619A6170474FF4A060FFF7B0F862
:101D7000FFF724FFFFF7FCF9FFF7D7FAFEF774FC33
:101D8000FFF78EFBFEF75CFB002006490870064952
:101D9000087005E003480078012801D1FFF720FA18
:101DA000F8E700001D0000201C00002000C1814059
:101DB00001C0804101C0804100C1814001C080411B
:101DC00000C1814000C1814001C0804101C080410B
:101DD00000C1814000C1814001C0804100C18140FB
:101DE00001C0804101C0804100C1814001C08041EB
:101DF00000C1814000C1814001C0804100C18140DB
:101E000001C0804101C0804100C1814000C18140CA
:101E100001C0804101C0804100C1814001C08041BA
:101E200000C1814000C1814001C0804101C08041AA
:101E300000C1814000C1814001C0804100C181409A
:101E400001C0804101C0804100C1814000C181408A
:101E500001C0804101C0804100C1814001C080417A
:101E600000C1814000C1814001C0804100C181406A
:101E700001C0804101C0804100C1814001C080415A
:101E800000C1814000C1814001C0804101C080414A
:101E900000C1814000C1814001C0804100C181403A
:101EA00001C0804101C0804100C1814000C0C1012A
:101EB000C30302C2C60607C705C5C404CC0C0DCDBA
:101EC0000FCFCE0E0ACACB0BC90908C8D81819D92A
:101ED0001BDBDA1A1EDEDF1FDD1D1CDC14D4D5155A
:101EE000D71716D6D21213D311D1D010F03031F14A
:101EF00033F3F23236F6F737F53534F43CFCFD3D7A
:101F0000FF3F3EFEFA3A3BFB39F9F83828E8E92969
:101F1000EB2B2AEAEE2E2FEF2DEDEC2CE42425E519
:101F200027E7E62622E2E323E12120E0A06061A189
:101F300063A3A26266A6A767A56564A46CACAD6D39
:101F4000AF6F6EAEAA6A6BAB69A9A86878B8B979A9
:101F5000BB7B7ABABE7E7FBF7DBDBC7CB47475B5D9
:101F600077B7B67672B2B373B17170B050909151C9
:101F70009353529296565797559594549C5C5D9DF9
:101F80005F9F9E5E5A9A9B5B9959589888484989E9
:101F90004B8B8A4A4E8E8F4F8D4D4C8C4484854599
:101FA000874746868242438341818040CC1F000898
:101FB00000000020240000006C010008F01F000851
:101FC00024000020840700008801000800000000B1
:101FD00001020304010203040607080902040608BB
:101FE000000000000101000000000000440000208B
:0400000508000131BD
:00000001FF
